{
  "contractName": "ToDo",
  "abi": [
    {
      "anonymous": false,
      "inputs": [
        {
          "indexed": false,
          "name": "",
          "type": "uint256"
        },
        {
          "indexed": false,
          "name": "",
          "type": "uint256"
        },
        {
          "indexed": false,
          "name": "",
          "type": "string"
        },
        {
          "indexed": false,
          "name": "",
          "type": "string"
        },
        {
          "indexed": false,
          "name": "",
          "type": "bool"
        }
      ],
      "name": "TaskCreated",
      "type": "event"
    },
    {
      "constant": false,
      "inputs": [],
      "name": "_ToDo_",
      "outputs": [],
      "payable": false,
      "stateMutability": "nonpayable",
      "type": "function"
    },
    {
      "constant": false,
      "inputs": [
        {
          "name": "_content",
          "type": "string"
        },
        {
          "name": "_author",
          "type": "string"
        }
      ],
      "name": "createTask",
      "outputs": [],
      "payable": false,
      "stateMutability": "nonpayable",
      "type": "function"
    },
    {
      "constant": true,
      "inputs": [],
      "name": "getTaskIds",
      "outputs": [
        {
          "name": "",
          "type": "uint256[]"
        }
      ],
      "payable": false,
      "stateMutability": "view",
      "type": "function"
    },
    {
      "constant": true,
      "inputs": [
        {
          "name": "id",
          "type": "uint256"
        }
      ],
      "name": "getTask",
      "outputs": [
        {
          "name": "",
          "type": "uint256"
        },
        {
          "name": "",
          "type": "uint256"
        },
        {
          "name": "",
          "type": "string"
        },
        {
          "name": "",
          "type": "string"
        },
        {
          "name": "",
          "type": "bool"
        }
      ],
      "payable": false,
      "stateMutability": "view",
      "type": "function"
    }
  ],
  "bytecode": "0x608060405234801561001057600080fd5b506108c9806100206000396000f3fe608060405260043610610062576000357c0100000000000000000000000000000000000000000000000000000000900463ffffffff1680631d65e77e146100675780632268810d146101a0578063292a4585146101b7578063bcd1480514610316575b600080fd5b34801561007357600080fd5b506100a06004803603602081101561008a57600080fd5b8101908080359060200190929190505050610382565b60405180868152602001858152602001806020018060200184151515158152602001838103835286818151815260200191508051906020019080838360005b838110156100fa5780820151818401526020810190506100df565b50505050905090810190601f1680156101275780820380516001836020036101000a031916815260200191505b50838103825285818151815260200191508051906020019080838360005b83811015610160578082015181840152602081019050610145565b50505050905090810190601f16801561018d5780820380516001836020036101000a031916815260200191505b5097505050505050505060405180910390f35b3480156101ac57600080fd5b506101b5610579565b005b3480156101c357600080fd5b50610314600480360360408110156101da57600080fd5b81019080803590602001906401000000008111156101f757600080fd5b82018360208201111561020957600080fd5b8035906020019184600183028401116401000000008311171561022b57600080fd5b91908080601f016020809104026020016040519081016040528093929190818152602001838380828437600081840152601f19601f8201169050808301925050505050505091929192908035906020019064010000000081111561028e57600080fd5b8201836020820111156102a057600080fd5b803590602001918460018302840111640100000000831117156102c257600080fd5b91908080601f016020809104026020016040519081016040528093929190818152602001838380828437600081840152601f19601f820116905080830192505050505050509192919290505050610583565b005b34801561032257600080fd5b5061032b6107a0565b6040518080602001828103825283818151815260200191508051906020019060200280838360005b8381101561036e578082015181840152602081019050610353565b505050509050019250505060405180910390f35b6000806060806000856000600260008381526020019081526020016000206000015414156103af57600080fd5b60026000888152602001908152602001600020600001546002600089815260200190815260200160002060010154600260008a8152602001908152602001600020600201600260008b8152602001908152602001600020600301600260008c815260200190815260200160002060040160009054906101000a900460ff16828054600181600116156101000203166002900480601f0160208091040260200160405190810160405280929190818152602001828054600181600116156101000203166002900480156104c25780601f10610497576101008083540402835291602001916104c2565b820191906000526020600020905b8154815290600101906020018083116104a557829003601f168201915b50505050509250818054600181600116156101000203166002900480601f01602080910402602001604051908101604052809291908181526020018280546001816001161561010002031660029004801561055e5780601f106105335761010080835404028352916020019161055e565b820191906000526020600020905b81548152906001019060200180831161054157829003601f168201915b50505050509150955095509550955095505091939590929450565b6001600081905550565b600080815480929190600101919050555060a0604051908101604052806000548152602001428152602001838152602001828152602001600015158152506002600080548152602001908152602001600020600082015181600001556020820151816001015560408201518160020190805190602001906106059291906107f8565b5060608201518160030190805190602001906106229291906107f8565b5060808201518160040160006101000a81548160ff021916908315150217905550905050600160005490806001815401808255809150509060018203906000526020600020016000909192909190915055507fb322bdd3250d405f7845d27fa1f0753f8f7e18e40886bc254b89005c3e9c0324600054428484600060405180868152602001858152602001806020018060200184151515158152602001838103835286818151815260200191508051906020019080838360005b838110156106f75780820151818401526020810190506106dc565b50505050905090810190601f1680156107245780820380516001836020036101000a031916815260200191505b50838103825285818151815260200191508051906020019080838360005b8381101561075d578082015181840152602081019050610742565b50505050905090810190601f16801561078a5780820380516001836020036101000a031916815260200191505b5097505050505050505060405180910390a15050565b606060018054806020026020016040519081016040528092919081815260200182805480156107ee57602002820191906000526020600020905b8154815260200190600101908083116107da575b5050505050905090565b828054600181600116156101000203166002900490600052602060002090601f016020900481019282601f1061083957805160ff1916838001178555610867565b82800160010185558215610867579182015b8281111561086657825182559160200191906001019061084b565b5b5090506108749190610878565b5090565b61089a91905b8082111561089657600081600090555060010161087e565b5090565b9056fea165627a7a723058206b01f90e33a9faa19239aa1cff7e2d7dc6459e1593667652c1313d2f5e91dc3d0029",
  "source": "pragma solidity 0.5.0;\n//pragma experimental ABIEncoderV2;\n\ncontract ToDo {\n  uint lastTaskId;\n  uint[] taskIds;\n  struct Task{\n    uint id;\n    uint date;\n    string content;\n    string author;\n    bool done;\n  }\n  mapping(uint => Task) tasks;\n  event TaskCreated(uint, uint, string, string, bool);\n\n  function _ToDo_() public {\n    lastTaskId = 1;\n  }\n\n  function createTask(string memory _content, string memory _author) public {\n    lastTaskId++;\n    tasks[lastTaskId] = Task(lastTaskId, now, _content, _author, false);\n    taskIds.push(lastTaskId);\n    emit TaskCreated(lastTaskId, now, _content, _author, false);\n  }\n\n  function getTaskIds() public view returns(uint[] memory) {\n    return taskIds;\n  }\n\n  function getTask(uint id) tasksExist(id) public view\n    returns(\n      uint,\n      uint,\n      string memory,\n      string memory,\n      bool\n    ){\n\n      return (\n        tasks[id].id,\n        tasks[id].date,\n        tasks[id].content,\n        tasks[id].author,\n        tasks[id].done\n      );\n  }\n\n  modifier tasksExist(uint id) {\n    if(tasks[id].id == 0){\n      revert();\n    }\n    _;\n  }\n}\n",
  "sourcePath": "/home/cecinuga/Documenti/GitHub/TodoList/contracts/ToDo.sol",
  "compiler": {
    "name": "solc",
    "version": "0.5.0+commit.1d4f565a.Emscripten.clang"
  },
  "schemaVersion": "3.0.1",
  "updatedAt": "2020-12-26T20:51:28.342Z",
  "devdoc": {
    "methods": {}
  },
  "userdoc": {
    "methods": {}
  }
}